{
  "_format": "hh-sol-artifact-1",
  "contractName": "BoxV1",
  "sourceName": "contracts/BoxV1.sol",
  "abi": [
    {
      "anonymous": false,
      "inputs": [
        {
          "indexed": false,
          "internalType": "uint8",
          "name": "version",
          "type": "uint8"
        }
      ],
      "name": "Initialized",
      "type": "event"
    },
    {
      "inputs": [],
      "name": "area",
      "outputs": [
        {
          "internalType": "uint256",
          "name": "",
          "type": "uint256"
        }
      ],
      "stateMutability": "view",
      "type": "function"
    },
    {
      "inputs": [
        {
          "internalType": "uint256",
          "name": "_length",
          "type": "uint256"
        },
        {
          "internalType": "uint256",
          "name": "_width",
          "type": "uint256"
        }
      ],
      "name": "initialize",
      "outputs": [],
      "stateMutability": "nonpayable",
      "type": "function"
    },
    {
      "inputs": [],
      "name": "length",
      "outputs": [
        {
          "internalType": "uint256",
          "name": "",
          "type": "uint256"
        }
      ],
      "stateMutability": "view",
      "type": "function"
    },
    {
      "inputs": [],
      "name": "width",
      "outputs": [
        {
          "internalType": "uint256",
          "name": "",
          "type": "uint256"
        }
      ],
      "stateMutability": "view",
      "type": "function"
    }
  ],
  "bytecode": "0x608060405234801561001057600080fd5b506104c7806100206000396000f3fe608060405234801561001057600080fd5b506004361061004c5760003560e01c80631f7b6d32146100515780634d41892f1461006f5780639ededf771461008d578063e4a30116146100ab575b600080fd5b6100596100c7565b604051610066919061026c565b60405180910390f35b6100776100cd565b604051610084919061026c565b60405180910390f35b6100956100e4565b6040516100a2919061026c565b60405180910390f35b6100c560048036038101906100c091906102b8565b6100ea565b005b60025481565b60006001546002546100df9190610327565b905090565b60015481565b60008060019054906101000a900460ff1615905080801561011b5750600160008054906101000a900460ff1660ff16105b80610148575061012a30610230565b1580156101475750600160008054906101000a900460ff1660ff16145b5b610187576040517f08c379a000000000000000000000000000000000000000000000000000000000815260040161017e90610404565b60405180910390fd5b60016000806101000a81548160ff021916908360ff16021790555080156101c4576001600060016101000a81548160ff0219169083151502179055505b8260028190555081600181905550801561022b5760008060016101000a81548160ff0219169083151502179055507f7f26b83ff96e1f2b6a682f133852f6798a09c465da95921460cefb384740249860016040516102229190610476565b60405180910390a15b505050565b6000808273ffffffffffffffffffffffffffffffffffffffff163b119050919050565b6000819050919050565b61026681610253565b82525050565b6000602082019050610281600083018461025d565b92915050565b600080fd5b61029581610253565b81146102a057600080fd5b50565b6000813590506102b28161028c565b92915050565b600080604083850312156102cf576102ce610287565b5b60006102dd858286016102a3565b92505060206102ee858286016102a3565b9150509250929050565b7f4e487b7100000000000000000000000000000000000000000000000000000000600052601160045260246000fd5b600061033282610253565b915061033d83610253565b9250817fffffffffffffffffffffffffffffffffffffffffffffffffffffffffffffffff0483118215151615610376576103756102f8565b5b828202905092915050565b600082825260208201905092915050565b7f496e697469616c697a61626c653a20636f6e747261637420697320616c72656160008201527f647920696e697469616c697a6564000000000000000000000000000000000000602082015250565b60006103ee602e83610381565b91506103f982610392565b604082019050919050565b6000602082019050818103600083015261041d816103e1565b9050919050565b6000819050919050565b600060ff82169050919050565b6000819050919050565b600061046061045b61045684610424565b61043b565b61042e565b9050919050565b61047081610445565b82525050565b600060208201905061048b6000830184610467565b9291505056fea2646970667358221220cd9a0eeceb3a723f8a3e2925dd410713cc32e19d2d2d5b04b275adb82f096bcd64736f6c63430008090033",
  "linkReferences": {},
  "deployedLinkReferences": {}
}