{
  "_format": "hh-sol-artifact-1",
  "contractName": "BoxV2",
  "sourceName": "contracts/BoxV2.sol",
  "abi": [
    {
      "anonymous": false,
      "inputs": [
        {
          "indexed": false,
          "internalType": "uint8",
          "name": "version",
          "type": "uint8"
        }
      ],
      "name": "Initialized",
      "type": "event"
    },
    {
      "inputs": [],
      "name": "area",
      "outputs": [
        {
          "internalType": "uint256",
          "name": "",
          "type": "uint256"
        }
      ],
      "stateMutability": "view",
      "type": "function"
    },
    {
      "inputs": [
        {
          "internalType": "uint256",
          "name": "_length",
          "type": "uint256"
        },
        {
          "internalType": "uint256",
          "name": "_width",
          "type": "uint256"
        }
      ],
      "name": "initialize",
      "outputs": [],
      "stateMutability": "nonpayable",
      "type": "function"
    },
    {
      "inputs": [],
      "name": "length",
      "outputs": [
        {
          "internalType": "uint256",
          "name": "",
          "type": "uint256"
        }
      ],
      "stateMutability": "view",
      "type": "function"
    },
    {
      "inputs": [],
      "name": "perimeter",
      "outputs": [
        {
          "internalType": "uint256",
          "name": "",
          "type": "uint256"
        }
      ],
      "stateMutability": "view",
      "type": "function"
    },
    {
      "inputs": [],
      "name": "width",
      "outputs": [
        {
          "internalType": "uint256",
          "name": "",
          "type": "uint256"
        }
      ],
      "stateMutability": "view",
      "type": "function"
    }
  ],
  "bytecode": "0x608060405234801561001057600080fd5b50610574806100206000396000f3fe608060405234801561001057600080fd5b50600436106100575760003560e01c80631f7b6d321461005c5780632cf6598f1461007a5780634d41892f146100985780639ededf77146100b6578063e4a30116146100d4575b600080fd5b6100646100f0565b60405161007191906102c3565b60405180910390f35b6100826100f6565b60405161008f91906102c3565b60405180910390f35b6100a0610124565b6040516100ad91906102c3565b60405180910390f35b6100be61013b565b6040516100cb91906102c3565b60405180910390f35b6100ee60048036038101906100e9919061030f565b610141565b005b60025481565b60006002600154610107919061037e565b60028054610115919061037e565b61011f91906103d8565b905090565b6000600154600254610136919061037e565b905090565b60015481565b60008060019054906101000a900460ff161590508080156101725750600160008054906101000a900460ff1660ff16105b8061019f575061018130610287565b15801561019e5750600160008054906101000a900460ff1660ff16145b5b6101de576040517f08c379a00000000000000000000000000000000000000000000000000000000081526004016101d5906104b1565b60405180910390fd5b60016000806101000a81548160ff021916908360ff160217905550801561021b576001600060016101000a81548160ff0219169083151502179055505b826002819055508160018190555080156102825760008060016101000a81548160ff0219169083151502179055507f7f26b83ff96e1f2b6a682f133852f6798a09c465da95921460cefb384740249860016040516102799190610523565b60405180910390a15b505050565b6000808273ffffffffffffffffffffffffffffffffffffffff163b119050919050565b6000819050919050565b6102bd816102aa565b82525050565b60006020820190506102d860008301846102b4565b92915050565b600080fd5b6102ec816102aa565b81146102f757600080fd5b50565b600081359050610309816102e3565b92915050565b60008060408385031215610326576103256102de565b5b6000610334858286016102fa565b9250506020610345858286016102fa565b9150509250929050565b7f4e487b7100000000000000000000000000000000000000000000000000000000600052601160045260246000fd5b6000610389826102aa565b9150610394836102aa565b9250817fffffffffffffffffffffffffffffffffffffffffffffffffffffffffffffffff04831182151516156103cd576103cc61034f565b5b828202905092915050565b60006103e3826102aa565b91506103ee836102aa565b9250827fffffffffffffffffffffffffffffffffffffffffffffffffffffffffffffffff038211156104235761042261034f565b5b828201905092915050565b600082825260208201905092915050565b7f496e697469616c697a61626c653a20636f6e747261637420697320616c72656160008201527f647920696e697469616c697a6564000000000000000000000000000000000000602082015250565b600061049b602e8361042e565b91506104a68261043f565b604082019050919050565b600060208201905081810360008301526104ca8161048e565b9050919050565b6000819050919050565b600060ff82169050919050565b6000819050919050565b600061050d610508610503846104d1565b6104e8565b6104db565b9050919050565b61051d816104f2565b82525050565b60006020820190506105386000830184610514565b9291505056fea2646970667358221220e8b2ad72214e0d652aa7a9b924263e9e9706cb7d341582ccee95d9bd5801eef364736f6c63430008090033",
  "linkReferences": {},
  "deployedLinkReferences": {}
}